:020000040800F2
:10000000681E0020A1010008AB220008E9200008BA
:10001000A922000841120008AD26000800000000D7
:10002000000000000000000000000000AF220008F7
:100030004312000800000000AD220008B1220008B1
:10004000BB010008BB010008BB010008BB010008A0
:10005000BB010008BB010008BB010008BB01000890
:10006000BB010008BB010008BB010008BB01000880
:10007000BB010008BB010008BB010008BB01000870
:10008000BB010008BB010008BB010008BB01000860
:10009000BB010008BB010008BB010008BB01000850
:1000A000BB010008BB010008BB010008BB01000840
:1000B00021230008BB01000800000000BB0100086C
:1000C000BB0100080000000000000000BB010008A8
:1000D00000000000BB010008BB010008BB010008D4
:1000E000BB010008BB010008000000000000000088
:1000F0000000000000000000000000000000000000
:1001000000000000000000000000000000000000EF
:100110000000000000000000BB010008BB01000857
:1001200000000000000000000000000000000000CF
:1001300000000000000000000000000000000000BF
:10014000BB010008BB010008000000000000000027
:10015000000000000000000000000000000000009F
:10016000000000000000000000000000000000008F
:10017000000000000000000000000000000000007F
:1001800000000000BB010008DFF810D000F06AFE9C
:100190000048004755330008AFF30080681E002078
:1001A0000648804706480047FEE7FEE7FEE7FEE711
:1001B000FEE7FEE7FEE7FEE7FEE7FEE711230008A5
:1001C000890100082DE9F05F0546002092469B4614
:1001D00088460646814640241BE02846414647465D
:1001E000224600F020F853465A46C01A914110D3D7
:1001F00011461846224600F067FC2D1A67EB0108ED
:100200004F4622460120002100F05EFC17EB00095A
:100210004E41201EA4F10104DFDC484631462A4647
:100220004346BDE8F09F202A04DB203A21FA02F081
:100230000021704721FA02F3D040C2F12002914020
:100240000843194670472DE9FE43994615468846EE
:10025000074601AC022942D3002D40D00020029075
:10026000A8F101004FF0FF36009022E000FB05727C
:1002700001FB057011464A469047002805DC54F8FA
:100280002600304444F8260013E060682A4600FB4C
:10029000057154F8040C00FB057007E00B7890F82A
:1002A00000C001F801CB00F8013B521E002AF5D135
:1002B000764254F8040C61688842D7DC4B462A46E3
:1002C0003846FFF7C0FF54F8040C4B46A8EB00017A
:1002D000401C00FB05702A46491EFFF7B4FFBDE82D
:1002E000FE8340EA01039B0703D009E008C9121FFF
:1002F00008C0042AFAD203E011F8013B00F8013BE0
:10030000521EF9D27047D2B201E000F8012B491E0B
:10031000FBD270470022F6E710B513460A460446A2
:100320001946FFF7F0FF204610BD00000FB400B5DE
:1003300089B00BA800906A4603480A9900F0F4FBC4
:1003400009B05DF814FB0000180000202DE9FF5FE4
:100350001D464FF0FF3BD5E9014691465F464FF001
:100360000008A9697F1C01988847296A8246884746
:100370000028F6D1BAF1FF3F0CD024F4C064002E5F
:1003800019DD600614D5BAF12B0F09D0BAF12D0F83
:100390000ED103E0584604B0BDE8F09F44F48064F9
:1003A000A9697F1C01988847761E8246002E02DDCF
:1003B000BAF1300F03D0B9F1000F26D032E0A969AD
:1003C000761E44F400747F1C019888478246002EF4
:1003D00005DDBAF1780F06D0BAF1580F03D0B9F1A4
:1003E000000F10D01EE0B9F1000F02D0B9F1100FCC
:1003F00018D1A969761E24F400747F1C01988847DF
:100400008246102002E0082000E00A20814609E030
:1004100008FB0908A969761E44F400747F1C019842
:1004200088478246002E05DD4946504600F06DFBA8
:100430000028EDDAE96901988847A00502D46FF039
:100440000100A8E7E00725D1600613D5600502D5B5
:10045000C8F1000000E0404629680A1D2A600968CA
:10046000220501D5087015E0220701D5088011E0AA
:1004700008600FE02868011D29600068210502D589
:1004800080F8008006E0210702D5A0F8008001E096
:10049000C0F8008038467EE72DE9FF4F087883B02A
:1004A0009946FF2805D0491C2D2804D0002400209F
:1004B00008E000200BE00124F9E700EB800003EBEB
:1004C0004000491C0B78FF2BF7D104B140420023B8
:1004D0000293147819461D462D2C01D02B2C04D1E3
:1004E000521C2D2C13D000240294AA461478FF2C01
:1004F0000FD00A25A3FB057801FB05814FF0000C06
:1005000003FB0C11521CE3194AEB0101EEE7012435
:10051000EAE7814453EA010002D019F5C87F06DA00
:1005200003980021C0E9001107B0BDE8F08F002555
:10053000AE4E2F46DFF8B882184600F056FCCDE9E3
:100540000001B9F1000002DAC9F1000400E004463C
:100550000023A74A1AEB030B42EB045A12E0E00710
:1005600007D02A4633463846414600F07BFB074613
:1005700088462A4633461046194600F073FB054666
:100580000E466410002CEAD1DDE90001B9F1000F3C
:100590005A46534606DA00F0D6F93A46434600F08A
:1005A000D2F905E000F05EFB3A46434600F05AFB04
:1005B000029A0AB181F00041039AC2E90001B3E74F
:1005C0002DE9FF4F1F468DB0D7E901464FF0FF38A8
:1005D0002E2045464FF000090B90B9696D1C0E980E
:1005E0008847396A824688470028F6D1BAF1FF3F2A
:1005F0000AD024F4D064002E11DDBAF12B0F08D0FC
:10060000BAF12D0F0BD102E0404611B08DE744F452
:100610008064B9696D1C0E9888478246761E6946CB
:10062000600501D52D2000E02B208DF8000001F1A0
:10063000010B0DF1200809E0B9696D1C0E9888477F
:1006400082460F9844F40074761E0560002E02DD89
:10065000BAF1300FF0D00B998A453ED144F08004B6
:1006600006E00F99681CA9F1010944F400740860C0
:10067000B9696D1C761E0E98884782463028F0D0E6
:100680002BE00B998A4505D1200603D444F0800461
:10069000761E18E0504602F03FF908B30DF1130141
:1006A000761E44F400748B4508D2AAF130000BF892
:1006B000010B200607D5A9F1010003E0200602D4B2
:1006C00009F101008146A00502D50F99681C086058
:1006D000B9696D1C0E9888478246002ED1DC53E024
:1006E000002E51DDBAF1650F02D0BAF1450F4BD1A2
:1006F000A00549D5B9696D1C24F44074761E0E9886
:1007000088478246002E0CDD2B2804D0BAF12D0F2D
:1007100007D144F48074B9696D1C0E9888478246ED
:10072000761EE00501D52D2100E02B2108F8011BE4
:10073000CDF82C8021E00DF12901761E44F40074DF
:1007400088450CD2AAF1300010F0FF0088F80000B4
:1007500002D10B99884509D908F1010806E0E005A6
:1007600001D5244801E042F20F708146B9696D1C41
:100770000E98884782460F980560002E04DD50468B
:1007800002F0CAF80028D6D1F9690E988847FF20F0
:100790008BF8000088F800000020069007904B4678
:1007A0006A4608A906A8FFF777FEA00502D46FF0F5
:1007B00001002AE714F0240F0AD0E00714D1DDE984
:1007C00006123868031D3B600068C0E900120BE0A8
:1007D000DDE9060100F046F90146E00704D138687A
:1007E000021D3A600068016028460EE700001440D0
:1007F0000000F03FF1D8FFFF2DE9FE4F804681EA6F
:100800000300C00F0C46009021F0004123F000458A
:10081000B8EB0200A94105D24046214690461C464D
:100820000B46024623F00040104347D0270DC7F384
:100830000A00C3F30A510290401A019040286BDA73
:10084000C3F3130040F4801B0098924620B10023AC
:10085000D2EB030A63EB0B0B01985946C0F140023F
:10086000504600F031F906460D4650465946019A69
:1008700000F039F910EB08006141002487EA1152B9
:1008800084EAE7731A4340D0009A62B3019A012ABE
:100890004FEA075215DC001B61EB02014FF00042EA
:1008A00002EA0752CDE90042001C41F580113246B0
:1008B0002B4600F089F903B0BDE8F08F4046214691
:1008C000F9E7001B61EB0201001C41F580130018E1
:1008D0005B412018A2F5001747EB030140EAD570F1
:1008E000B6196D4111E06D084FEA360645EAC0754C
:1008F0004FEA0752001B61EB0201001C41F5801119
:1009000049084FEA30000019514132462B4603B0E6
:10091000BDE8F04F00F049B90098012240000023E3
:10092000D0EB020263EBE073009821464FEAE074DB
:10093000B8EB000061EB0401E9E783F000435BE7FB
:1009400081F0004158E72DE9F04D81EA030404F0FD
:10095000004B21F0004514464FF0000A23F00041FF
:1009600050EA050220D054EA01021DD0C5F30A570F
:100970000246C5F31303C1F31300C1F30A5640F452
:10098000801543F48013A7EB0608101BD64608F227
:10099000FD3873EB050002D308F1010801E092185D
:1009A0005B41B8F1000F03DA00200146BDE8F08D8D
:1009B00000204FF48011064684460EE0171B73EBAF
:1009C000050705D3121B63EB050306434CEA010C34
:1009D00049084FEA300092185B4150EA0107EDD117
:1009E00052EA030012D082EA040083EA05010843B8
:1009F00005D0101BAB4106D20122002306E00022E5
:100A00004FF0004302E06FF0010253101AEB0600B2
:100A10004CEB085110EB0A0041EB0B01BDE8F04D27
:100A200000F0C3B80EB540F2334102910021CDE988
:100A300000110A460B4600F0C7F803B000BD00F0F5
:100A4000004230F000400AD0C10D01F56071C0F3E2
:100A5000160042EA0151C2084007114370470020C6
:100A60000146704701F0004330B421F0004150EAE4
:100A7000010206D00A0DA2F56072C1F31301002A2B
:100A800002DC30BC00207047440F44EAC104C100BE
:100A9000E01830BC00EBC25000F050B830B50B4647
:100AA000014600202022012409E021FA02F59D429E
:100AB00005D303FA02F5491B04FA02F52844151E72
:100AC000A2F10102F1DC30BD202A04DB203A00FA59
:100AD00002F1002070479140C2F1200320FA03F395
:100AE000194390407047202A06DBCB17203A41FA81
:100AF00002F043EAE07306E041FA02F3D040C2F1AB
:100B0000200291400843194670473A2800D23038F5
:100B100020F02002412A01D3A2F13700884201D3FC
:100B20004FF0FF3070470000024B9361024BD361DE
:100B300000F0C6B98D320008A50E00080029A8BF34
:100B40007047401C490008BF20F00100704710B4F6
:100B5000B0FA80FC00FA0CF050EA010404BF10BCAB
:100B6000704749B1CCF1200421FA04F411FA0CF1D8
:100B700018BF012121430843A3EB0C01CB1D4FEA11
:100B800000614FEA102042BF002010BC704700EB0C
:100B9000C35010440029A4BF10BC7047401C49003A
:100BA00008BF20F0010010BC704710B5141E73F18F
:100BB000000408DA401C41F1000192185B411A431D
:100BC00001D120F0010010BD2DE9F04D92469B4669
:100BD00011B1B1FA81F202E0B0FA80F2203290460F
:100BE000FFF772FF04460F4640EA0A0041EA0B0194
:100BF00053465A46084313D0114653EA010019D010
:100C0000C8F140025046FFF70EFB05460E4650461F
:100C100059464246FFF758FF084305D0012004E03B
:100C200020463946BDE8F08D0020054346EAE076CF
:100C30002C4337430A986305E40AA0EB080000221E
:100C4000FD0A44EA47540A3002D500200146E9E78C
:100C5000010510196941DDE9084500196941BDE840
:100C6000F04DA2E72DE9FE4F81EA030404F00044B1
:100C700021F0004100944FF0000B23F0004350EAB4
:100C800001045ED052EA03045BD0C3F30A54C1F3FB
:100C90000A552C44A4F2F3340194A0FB0254C1F38E
:100CA000130141F48011C3F3130343F4801301FBD8
:100CB000024400FB034E840A970A44EA815447EA3F
:100CC0008357A4FB076802958D0A05FB07854FEA49
:100CD000932C04FB0C542705029D4FEA065847EA63
:100CE0001637B5EB08056EEB070C870E920E47EA38
:100CF000811742EA8312A7FB0201B6EB0B0164EBFA
:100D000000042B0D43EA0C335E1844EB1C50DA460A
:100D10005146E7FB0201C5F313044FEA0B3343EAE4
:100D200014534FEA0432019C43EA0603A4F10C0475
:100D30000294009CCDE900B4FFF746FF03B0BDE884
:100D4000F08F00200146F9E72DE9F04D00231A4607
:100D50001B1A8A4103DB00200146BDE8F08DC1F378
:100D60000A52C1F3130141F480154FF0000BD10773
:100D700002D100186D41521E0027044640F2FF11B7
:100D8000384601EB620A3E468046024600204FF498
:100D90008011FFF748FAC2197141BB1846EB0100F8
:100DA000B4EB030C75EB000C04D3E41A65EB0005FF
:100DB00017460E46241908F101006D41804634287B
:100DC000E3DDF91946EB0600091BA84103D24FF0F9
:100DD000FF32134601E0002213461BEB070046EBEF
:100DE0000A51BDE8F04DFFF7E0BE0EB540F23342C8
:100DF00002920022CDE900221346FFF7E5FE03B080
:100E000000BDC1F30A52C1F3130140F2FF3341F4B4
:100E100080119A4202DA00200146704740F23343C3
:100E20009A42A2F2334202DC5242FFF7FCB9FFF7CA
:100E30004BBE000030B5041E71F1000404DB4FF01E
:100E40000044404264EB0101141E73F1000405DB11
:100E50001C464FF00043524263EB0403994208BF23
:100E6000904230BD064C074D06E0E06840F00103BB
:100E700094E8070098471034AC42F6D3FFF788F99E
:100E80007435000894350008094910B508784C1CE1
:100E900018B1401E0870205C10BD00210720ABBEB9
:100EA000207010BD02490878421C0A70704700008B
:100EB0002C00002002681144137801601846704726
:100EC000D160044951610449116200211161114648
:100ED00000F00AB8B50E0008DD0E0008C0B24FF4ED
:100EE000F05100F099B900002DE9F34F8BB04FF0AD
:100EF000000801F10C000C464FF0010B46460DF1C5
:100F0000080A01906269012101989047051E2DD0C1
:100F1000252D2CD0216A8847C0B162690121019832
:100F20009047216A88470028F7D1411E62690198DD
:100F3000904700E0761CA1690B988847216A884792
:100F40000028F7D1E1690B988847DBE7A1690B9886
:100F500088470746A84201D1761CD3E7E1690B9880
:100F600088477F1C02D1B8F1000F6FD047E10027FE
:100F700062693D463946019890472A2804D1626942
:100F80000121019890470125DFF8889262690121CB
:100F900001989047A0F130010A290AD24F45E5DCBB
:100FA00007EB870100EB4107303FDFD445F0100528
:100FB000ECE7E90601D46FF000476C280AD04C2812
:100FC00014D0682815D06A280DD074281CD07A282F
:100FD0001AD01DE062690121019890476C2802D067
:100FE00045F0040514E045F002050DE045F020054C
:100FF0000AE06269012101989047682802D045F013
:10100000080505E045F400656269012101989047F3
:10101000C4E9015765283DD019DC58287AD00CDC8A
:10102000452837D004DC252826D0412831D131E0AD
:1010300046282FD047282CD12CE05B2877D0612878
:1010400028D063287CD0642823D15AE0D1E06F28CF
:1010500048D008DC66281DD067281BD0692821D01D
:101060006E2816D127E0702845D0732868D07528DF
:1010700047D078280DD14DE0A1690B9888470546E7
:1010800025283FF469AFE1690B9888476D1C3FF450
:101090006AAFB4E023466A466FF001000B99FFF790
:1010A0008FFA9FE045F040006060A80723464FF0AC
:1010B000000236D43EE0E8077FF447AF2068011D08
:1010C00021600068290501D506701BE7290701D5B5
:1010D000068017E7A90703D5F117C0E9006111E7FA
:1010E00006600FE745F040006060A80723464FF018
:1010F000080216D41EE040F60E0125EA01006060E9
:1011000016E045F040006060A80723464FF00A0251
:1011100007D40FE045F040006060A80708D52346DB
:1011200010226FF001000B99AFF300805AE007E046
:10113000234610226FF001000B99FFF707F951E0E9
:101140004FF000094F464B46632802D05B2807D07A
:1011500041E02079C00601D40120A06001273AE0D7
:1011600062690121019890475E2805D14FF001097D
:101170006269494601989047216939B900210A46B8
:10118000534643F82120491C0829FADBB0B32169F2
:1011900069B9C11700EBD16253110AEB830122F048
:1011A0001F02821A01200B68904003430B606269A2
:1011B0000121019890475D28E8D1B9F1000F09D0CD
:1011C0000020514651F82020D24341F82020401CF5
:1011D0000828F7DB02AB224600976FF001000B995D
:1011E000AFF3008000280CDA401C08D1BBF1000FDF
:1011F00005D04FF0FF300DB0BDE8F08FFFE740465F
:10120000F9E7E90701D108F1010806444FF0000BA6
:1012100078E60000CCCCCC0C7F2801D9002208E075
:10122000064A02EB5002C007127800D1120902F000
:101230000F0201209040084070470000343500083C
:10124000FEE7704772B6FEE7F0B504460020CB0714
:1012500011D01E235FF0010603F01F0706FA07F501
:101260000D4201D15B1EF7D27AB1082A0BD0102AA9
:1012700006D0182A01D00120F0BD072BFBD204E0D4
:10128000082BF8D201E0102BF5D2236859612168B0
:101290008B6823F0180313438B60F0BD10B5040076
:1012A00010D0607F20B900202077204600F030F871
:1012B00002206077207938B1D4E902122046FFF786
:1012C000C3FF48B1012010BD216810484861206863
:1012D000816821F0180181606079A0B120692168DE
:1012E000086120688168626921F0600111438160B2
:1012F00020688168A26921F080011143816001208A
:101300006077002010BD4FF0FF30E8E7B71DC10443
:1013100008B500680649884208D10648416941F08D
:1013200040014161406900F04000009008BD0000AC
:10133000003002400010024070B5044600F01EF973
:101340000546601C02D004480078044400F016F9F9
:10135000401BA042FAD370BD080000202DE9F04FD9
:10136000DFF80092002301260325A9F1040B85B0C4
:101370000F2709F1040AABF1040EEAE006FA03F4C0
:1013800022407CD091F804C00CF0030CBCF1010F9A
:1013900002D0BCF1020F26D1D0F808C0CDF800C0B1
:1013A0004FEA430C05FA0CF8CDF810C0DDF800C088
:1013B0002CEA080CCDF800C0D1F80C80DDF810C084
:1013C00008FA0CF8DDF800C048EA0C08C0F80880FC
:1013D000D0F804C02CEA040C0C79C4F300149C402F
:1013E00044EA0C0444600C79E443A4070DD0D0F81F
:1013F0000CC04FEA430805FA08F42CEA040C8C6888
:1014000004FA08F444EA0C04C4600C7904F0030400
:10141000022C19D1DC0800EB84040294246A4FEA00
:10142000437C4FEADC6CCDF810C007FA0CFC24EAD0
:101430000C04D1F81080DDF810C008FA0CF848EA66
:101440000408029CC4F8208004684FEA430805FAA7
:1014500008FC24EA0C0491F804C00CF0030C0CFA0C
:1014600008FC4CEA040CC0F800C04C6814F4403F7F
:101470006ED03D4CD4F818C04CF0010C00E067E091
:10148000C4F818C0A46923F0030C04F0010400940C
:10149000364C64440294A4684FEA837C4FEA1C787B
:1014A00007FA08FC24EA0C04B0F1904F06D0DFF8EC
:1014B000C0C0604505D14FF0010C12E04FF0000CA8
:1014C0000FE0DFF8B0C0604502D14FF0020C08E039
:1014D000DFF8A4C0604502D14FF0030C01E04FF0EB
:1014E000050C0CFA08FC4CEA040C029CC4F808C079
:1014F000D9F80040CC46D1F8048094435FEAC8286C
:1015000000D51443CCF80040DAF80040D446D1F8B6
:10151000048094435FEA882800D51443CCF8004047
:10152000DBF80040DC46D1F8048094435FEA883859
:1015300000D51443CCF80040DEF80040F446D1F862
:10154000048094435FEAC83800D51443CCF80040C7
:101550005B1C0A6832FA03F47FF410AF05B0BDE8F3
:10156000F08F00000804014000100240000001401C
:101570000004004800080048000C0048014880684A
:10158000704700000800002002488168027811447A
:101590008160704708000020074810B5016841F0DD
:1015A00010010160032000F05FF8002000F006F851
:1015B00000F024F8002010BD0020024070B50D4D51
:1015C00004464FF47A712878B1FBF0F00A490968B3
:1015D000B1FBF0F000F048FC48B9102C07D2002213
:1015E0002146501E00F020F800206C6070BD0120E4
:1015F00070BD00000800002014000020094808B554
:10160000816941F001018161816901F0010100916D
:10161000C16941F08051C161C06900F08050009003
:1016200008BD000000100240F0B40E4B1B680C46D1
:10163000C3F30223C3F10705042D00D90425191DA6
:10164000072901D2002300E0DB1E012606FA05F17E
:10165000491E214099409E40761E16403143F0BC01
:1016600001F036B80CED00E0064900F0070208680A
:101670004FF6FF03184040EA0220034A1043086077
:10168000704700000CED00E00000FA052DE9F0477E
:101690000F46050069D04A4E306800F00700B84296
:1016A00009D2306820F0070038433060306800F01D
:1016B0000700B84259D12878424C800705D56068A8
:1016C000A96820F0F000084360602878C0073DD08A
:1016D0006968012001290DD0022923D05FF002039F
:1016E00093FAA3F2B2FA82F242F02002520904D035
:1016F000226803E04FF40033F2E7626A93FAA3F33F
:10170000B3FA83F303F01F03984002422DD06068C0
:1017100020F0030008436060FFF730FF804641F28D
:1017200088390CE04FF00073DAE700BFFFF726FFBF
:10173000A0EB0801494502D90320BDE8F0876068A5
:10174000696800F00C00B0EB810FEFD1306800F059
:101750000700B8420BD9306820F0070038433060EA
:10176000306800F00700B84201D00120E5E7287892
:10177000400705D56068E96820F4E06008436060D0
:101780002878000706D56068296920F4605040EA8F
:10179000C100606000F04EF86168F02292FAA2F297
:1017A00001F0F001B2FA82F2D140074A515CC84020
:1017B0000649086006480068FFF700FF0020BCE704
:1017C00000200240001002401C35000814000020D8
:1017D0000C00002008480949006849684FF4E0629D
:1017E00092FAA2F201F4E061B2FA82F2D140044A24
:1017F000515CC840704700001400002000100240F7
:101800002C35000808480949006849684FF46052BF
:1018100092FAA2F201F46051B2FA82F2D140044A83
:10182000515CC840704700001400002000100240C6
:101830002C350008164A10B55168164801F00C0303
:10184000042B20D0082B1ED14FF4701494FAA4F46A
:1018500001F47013B4FA84F4E3400F4CD26AE45CF0
:101860000F2393FAA3F302F00F02B3FA83F3DA40E3
:10187000094B1033C9039A5C06D500231946FEF7BD
:10188000A1FCA0FB040110BD0448A4FB000110BD95
:101890000010024000127A00FC34000800093D00EC
:1018A0002DE9F84F050071D02878FC4EC0074FF0A5
:1018B000010425D070686704C0F38100012807D0B7
:1018C0007068C0F3810002281BD17068C00318D56E
:1018D00097FAA7F0B0FA80F040F02000400901D05C
:1018E000306800E0706A97FAA7F1B1FA81F101F06F
:1018F0001F0104FA01F1084265D068680028D2D0BF
:1019000061E06868B0F5803F0BD010B1B0F5A02F52
:1019100017D0306820F480303060306820F48020A8
:1019200002E0306840F480303060F06AA96820F04E
:101930000F000843F062686820B3FFF71FFE80467F
:101940000AE0306840F480203060EAE7FFF716FED6
:10195000A0EB0800642871D897FAA7F0B0FA80F0DD
:1019600040F02000400901D0306800E0706A97FA2A
:10197000A7F1B1FA81F101F01F0104FA01F1084267
:10198000E4D020E0FFF7FAFD804607E0C2E000BFA8
:10199000FFF7F4FDA0EB08006428DCD897FAA7F065
:1019A000B0FA80F040F02000400901D0306800E03B
:1019B000706A97FAA7F1B1FA81F101F01F0104FAF8
:1019C00001F10842E4D12878DFF8D48280074FF093
:1019D000000A4FF0020730D570684FF0F80B10F096
:1019E0000C0F07D07068C0F38100022827D17068FF
:1019F000C00324D497FAA7F0B0FA80F040F020009A
:101A0000400901D0306800E0706A97FAA7F1B1FA96
:101A100081F101F01F0104FA01F1084202D02869A6
:101A2000012877D130689BFAABF220F0F8016869A1
:101A3000B2FA82F29040014331605AE064E12869D1
:101A400088B394FAA4F0B0FA80F048F82040FFF789
:101A500095FD814606E000BFFFF790FDA0EB090071
:101A600002289AD897FAA7F0B0FA80F040F0200048
:101A7000400901D0306800E0706A97FAA7F1B1FA26
:101A800081F101F01F0104FA01F10842E4D030684D
:101A90009BFAABF26969B2FA82F220F0F800914049
:101AA0000843306025E0FFE794FAA4F0B0FA80F034
:101AB00048F820A0FFF762FD814605E0FFF75EFDD4
:101AC000A0EB09000228CCD897FAA7F0B0FA80F072
:101AD00040F02000400901D0306800E0706A97FAB9
:101AE000A7F1B1FA81F101F01F0104FA01F10842F6
:101AF000E4D1287800076CD5A869A8B394FAA4F0BB
:101B0000B0FA80F008EB8000C0F88044FFF736FDA3
:101B1000814607E0A4E100BFFFF730FDA0EB09001C
:101B200002289ED897FAA7F0B0FA80F040F0600043
:101B3000B4EB501F01D130680BE097FAA7F0B0FA70
:101B400080F040F06000B7EB501F01D1306A00E038
:101B5000706A97FAA7F1B1FA81F101F01F0104FA56
:101B600001F21042D8D034E0FFE794FAA4F1B1FAC0
:101B700081F108EB8101C1F880A4FFF7FFFC8146E9
:101B800006E000BFFFF7FAFCA0EB090002289AD894
:101B900097FAA7F0B0FA80F040F06000B4EB501F65
:101BA00001D130680BE097FAA7F0B0FA80F040F06E
:101BB0006000B7EB501F01D1306A00E0706A97FAFD
:101BC000A7F1B1FA81F101F01F0104FA01F210420C
:101BD000D8D12878400768D5F0694FF00009C000D7
:101BE00009D4F06940F08050F061F0694FF00109CC
:101BF00000F0805000902B480168C90512D401689C
:101C000041F480710160FFF7B9FC834606E000BF34
:101C1000FFF7B4FCA0EB0B00642875D821480068DE
:101C2000C005F5D5E86801280AD008B1052811D00B
:101C3000306A20F001003062306A20F0040002E0D7
:101C4000306A40F001003062E86868B3FFF796FC44
:101C500083460DE0306A40F004003062F0E700BFD8
:101C6000FFF78CFCA0EB0B0141F2883081424BD88E
:101C700097FAA7F0B0FA80F040F04000B4EB501FA4
:101C800001D1306813E097FAA7F0B0FA80F040F085
:101C90004000B7EB501F09D1306A08E00010024045
:101CA00000004242007000400CE040E0706A97FA89
:101CB000A7F1B1FA81F101F01F0104FA01F210421B
:101CC000CED02DE0FFF75AFC834607E0FFF756FC25
:101CD000A0EB0B0141F28830814215D897FAA7F0AA
:101CE000B0FA80F040F04000B4EB501F01D13068F2
:101CF0000CE097FAA7F0B0FA80F040F04000B7EBA4
:101D0000501F02D1306A01E083E0706A97FAA7F1B0
:101D1000B1FA81F101F01F0104FA01F21042D5D1AC
:101D2000B9F1000F03D0F06920F08050F061E8694C
:101D300080B37168C1F38101022977D04FF08071BF
:101D40004F000228504609D091FAA1F1B1FA81F171
:101D500048F82100FFF712FC05465DE0894691FA3C
:101D6000A1F1B1FA81F1C24648F82100FFF706FC63
:101D7000804605E0FFF702FCA0EB0800022848D8E7
:101D800097FAA7F0B0FA80F040F02000400902D0A6
:101D9000306801E066E0706A97FAA7F1B1FA81F164
:101DA00001F01F0104FA01F10842E3D1D5E908105E
:101DB0000843716821F474110843706099FAA9F01E
:101DC000B0FA80F04AF82040FFF7D8FB054604E05F
:101DD000FFF7D4FB401B02281BD897FAA7F0B0FAF4
:101DE00080F040F02000400901D0306800E0706AC7
:101DF00097FAA7F1B1FA81F101F01F0104FA01F19C
:101E00000842E5D02EE000BFFFF7B8FB401B0228D8
:101E100002D90320BDE8F88F97FAA7F0B0FA80F056
:101E200040F02000400902D0306801E00BE0706A09
:101E300097FAA7F1B1FA81F101F01F0104FA01F15B
:101E40000842E1D10EE00128E4D070682A6A00F46B
:101E50008031914204D1696A00F47010884201D047
:101E60000120D7E70020D5E710B5401EB0F1807FF4
:101E700001D3012010BD4FF0E02460610F216017F5
:101E800000F026FC0020A06107202061002010BD8A
:101E900010B5040002D0E06F10B107E0012010BDC2
:101EA000002084F87800204600F026F82420E0671F
:101EB0002068016821F001010160204600F010FB5C
:101EC0000128ECD0606A10B1204600F02AFA2068A0
:101ED000416821F4904141602068816821F02A0125
:101EE00081602068016841F0010101602046BDE881
:101EF000104000F07ABA000010B586B004461421F4
:101F00006846FEF707FA13492068884220D1124834
:101F1000C16941F40031C161C16901F40031059129
:101F2000416941F4003141614069694600F4003083
:101F3000059048F2060000900220019000200290D7
:101F400003200390072004904FF09040FFF706FA1B
:101F500006B010BD00440040001002402DE9F84FCB
:101F60000446D0F880009B4616460D46202802D035
:101F70000220BDE8F88FC5B1BEB10027C4F8847057
:101F80002220C4F8800027661C34FFF7F7FAA687E2
:101F90008246E68754F8140C4FF48053FF211C3C12
:101FA000984207D1226912B119E00120E1E740F21D
:101FB000FF1114E07F2280B1B0F1805F12D0A4F84D
:101FC0005C7000BFB4F85C704FF02008984201D1FB
:101FD000206970B12E4600250CE0266936B9A4F8B8
:101FE0005C10EFE7216909B13F21F8E7A4F85C2014
:101FF000E8E7002607F0FF09B4F85A00F0B15346AD
:10200000002220212046CDF800B000F009FB18B1D5
:10201000C4F880800320ACE72068808C56B100EAC9
:10202000090006F8010B00BFB4F85A00401EA4F8DE
:102030005A00E1E7384025F8020BF5E7C4F8808044
:10204000002096E72DE9F8430446C06F98461646EF
:102050000D46202802D00220BDE8F88395B18EB14C
:102060000020C4F884002120E067FFF787FAA4F875
:1020700050608146A4F85260A0682027B0F5805FC8
:1020800002D003E00120E7E7206910B12E460025C9
:1020900010E000260EE08021204600F0C1FAC0B911
:1020A000D6B116F8010B21680885B4F85200401E1D
:1020B000A4F85200B4F852004B464FF00002CDF89D
:1020C00000800028E7D14FF04001204600F0A8FA38
:1020D00038B1E7670320BFE735F8020BC0F308000B
:1020E000E1E7E7670020B7E7FEE70000F0B5026828
:1020F0001A4B1B4F4FF0804C984203D0604501D0E3
:10210000B84203D14C6822F070022243154C164DA0
:10211000164E984209D0604507D0B84205D0A0427B
:1021200003D0A84201D0B04203D1CF6822F440725C
:102130003A4302608A68C2620A888262984205D085
:10214000A04203D0A84201D0B04201D10969016385
:10215000416941F0010141610020F0BD002C0140C6
:10216000000400400040014000440140004801409C
:102170000A4810B5084901600021017141714161AF
:10218000816101210162FFF789F8002803D0BDE8D1
:102190001040FFF757B810BD00300240B8130020C0
:1021A000094808B5416941F480014161416901F480
:1021B00080010091416941F400314161406900F4BE
:1021C0000030009008BD00000010024010B586B03D
:1021D00014216846FEF79EF81F48C16941F00101CD
:1021E000C161C06900F0010005901C480068C0F39F
:1021F0000220011D072901D2002000E0C01E00229C
:1022000002FA00F10801164981F800044FF0E021BC
:102210004FF08050C1F800010920ADF8000041F2F4
:102220008830CDE90120C406694620460392FFF7B5
:102230005DFF206840F080002060A06809490840E8
:10224000A060606820F070006060A06820F08000EE
:10225000A06006B010BD0000001002400CED00E0D0
:102260001CE000E0F8BFFEFF0E4810B50C4901600D
:102270004FF4E1314160002181600C22C160C0E96E
:1022800004124FF48072C0E9062101624162FFF737
:10229000FFFD002803D0BDE81040FEF7D3BF10BDFE
:1022A00000440040DC130020FEE7FEE77047704763
:1022B000FFF76AB930B58FB028216846FEF72AF8D3
:1022C00014210AA8FEF726F80225012004900095A3
:1022D0001020059000244FF46010CDE908400795C8
:1022E0006846FFF7DDFA08B172B6FEE70F20CDE9C8
:1022F0000A054FF48060CDE90C4002210AA80E9433
:10230000FFF7C4F9002801D072B6FEE70FB030BD68
:102310000248016841F470010160704788ED00E0F7
:10232000704790F82410C90706D001684A68836A8C
:1023300022F400321A434A6090F82410890706D527
:1023400001684A68C36A22F480321A434A6090F8EE
:102350002410490706D501684A68036B22F48022DD
:102360001A434A6090F82410090706D501684A68A4
:10237000436B22F400421A434A6090F82410C906C5
:1023800006D501688A68836B22F480521A438A60FA
:1023900090F82410890606D501688A68C36B22F478
:1023A00000521A438A6090F82410490611D501683A
:1023B0004A68036C22F480121A434A60016CB1F53A
:1023C000801F06D101684A68436C22F4C0021A4398
:1023D0004A6090F82410090606D501684A68806CA6
:1023E00022F4002202434A6070472DE9F843002698
:1023F0000446C0F88460FFF7C1F880462068006892
:102400004FF0200500076FF07E4712D543460022AB
:1024100029042046009700F003F950B1216851E8E3
:10242000000F20F0800041E80002002AF6D1E567A5
:1024300021E020680068400722D5434600224FF47F
:1024400080012046009700F0EBF8C8B1216851E800
:10245000000F20F4907041E80002002AF6D12068B5
:10246000083050E8001F21F0010140E80012002A66
:10247000F5D1C4F8805084F878600320BDE8F88373
:10248000E567C4F8805044F8606F666026760020E7
:10249000F4E7016851E8002F22F4907241E800232C
:1024A000002BF6D10168083151E8002F22F001021B
:1024B00041E80023002BF5D1016E012908D1026803
:1024C00052E8001F21F0100142E80013002BF6D162
:1024D0002021C0F88010002101668166704700004D
:1024E00070B5044680682169E26908436169002586
:1024F0001143226808431168434B1940014311609E
:1025000020684168E26821F4405111434160A169AB
:10251000206A084321688A6822F4306202438A6094
:102520003A492068884210D13948006B10F0030006
:1025300011D0012805D0022805D003280DD1022191
:102540000CE004210AE0082108E03249884202D068
:102550003149884201D1002100E01021E3694FF4A4
:1025600000402E4A4FF6EF76834226D1092941D208
:10257000DFE801F005080B400D4040401000FFF778
:1025800029F906E0FFF73EF903E0104602E0FFF705
:1025900051F980B34100606801EB5001B1FBF0F0EC
:1025A000A0F11001B14225D84FF6F0710140C0F3FF
:1025B000420001432068C16021E009291AD2DFE806
:1025C00001F005080B190D1919191000FFF702F990
:1025D00006E0FFF717F903E0104602E0FFF72AF9DB
:1025E00048B1616800EB5100B0FBF1F0A0F11001BF
:1025F000B14201D9012502E0216880B2C860002003
:10260000A066E066284670BDF369FFEF0038014020
:1026100000100240004400400048004000127A00D0
:102620002DE9F047994617460E4604464FF000083C
:10263000089D2FE0681C2DD0FEF7A0FFA0EB09003D
:10264000A84214D89DB120680168490722D5C16904
:10265000C94309070DD4082505622046FFF719FF75
:10266000C4F8845084F878800120BDE8F087032006
:10267000FBE7C069C04300050CD421684FF400603B
:1026800008622046FFF705FF2020C4F8840084F884
:102690007880ECE72068C06936EA000004D00020AA
:1026A000B842C7D00020E0E70120F9E7FEE70000CC
:1026B0000FB4054B10B503A9044A029800F034F991
:1026C00010BC5DF814FB0000A93200081C000020BB
:1026D0000907090E002804DB00F1E02080F800144F
:1026E000704700F00F0000F1E02080F8141D7047E3
:1026F00000B52DED048BB0EE409AF0EE609A83B0F9
:1027000051EC190BFEF720FB41EC180B18EE100AE8
:1027100018EE901A8DED008B002818BF0120084399
:1027200020F00040C0F17F6000F1E040C00F14D005
:1027300019EE101A19EE900A8DED009B002918BFB2
:102740000121084320F00040C0F17F6000F1E0402B
:10275000C00F04BF012000F017F8B0EE480A03B024
:10276000F0EE680ABDEC048B00BD02E008C8121F41
:1027700008C1002AFAD170477047002001E001C16A
:10278000121F002AFBD17047014908607047000002
:10279000280000202DE9FF5F82B00021DDE9043030
:1027A000020DDDF840B0034318D044F61050A2F2F9
:1027B000FF3242431514119801281FD0A5EB0B00DE
:1027C000401C5FEA000A4FF000064E4FDFF83891D8
:1027D000B046504615D5CAF1000413E01198012403
:1027E0004AA3012801D16FEA0B010298119AC0E9AE
:1027F0000031C0E9024206B0BDE8F09FCBF1000015
:10280000DFE704460021404A491842EB0450CDE975
:10281000001012E0E00707D032463B4640464946EA
:10282000FEF720FA8046894632463B461046194656
:10283000FEF718FA06460F466410002CEAD1DDE9CF
:102840000401DDE90023BAF1000F06DAFEF70AFA07
:1028500042464B46FEF706FA05E0FEF774F842469C
:102860004B46FEF770F804460E460022284BFEF752
:10287000E1FA03D84FF0FF30014607E00022254B74
:1028800020463146FDF7B8FFFEF7BBFA102409E0F9
:10289000002C0ADB0A220023FDF794FC039B303254
:1028A0001A55641E50EA0102F2D1641C039AC4F165
:1028B00011031444119A012A03D0012208430DD1B7
:1028C0000AE0084304D000204FF0110B119072E78A
:1028D000A3EB0B056D1E0DE05B4504DD4FF0000220
:1028E00005F1010504E003DA4FF00002A5F101054E
:1028F000002AECD002981199C0E90231C0E90045E4
:1029000079E70000000014400000F03F30000000B4
:102910000000F0430000E03F30380A2801D20120D7
:1029200070470020704700002DE9FF4F95B09A4690
:10293000884606460025EEE1252877D10024274663
:10294000F94A0121039400E0044316F8013F203BBB
:1029500001FA03F01042F7D130782A2811D06FF035
:102960002F033078A0F13002092A16D8039A44F0D8
:10297000020402EB820203EB42021044761C039035
:10298000EFE758F8042B0392002A03DA504244F48C
:102990000054039044F00204761C30782E2816D19F
:1029A00016F8010F44F004042A280DD06FF02F020E
:1029B0003078A0F13003092B09D807EB870302EB2D
:1029C0004303C718761CF3E758F8047B761C30786D
:1029D0006C280FD006DC4C2817D068280DD06A2848
:1029E00014D104E0742810D07A280FD10DE044F4FB
:1029F00000140AE044F4801401E044F440147278B6
:102A0000824202D104F58014761C761C3078662848
:102A10000BD013DC582877D009DC002875D0452866
:102A2000F6D04628F4D047281AD193E118E063285D
:102A300035D0642879D0652812D18BE1702873D005
:102A400008DC6728F1D069286FD06E280DD06F2878
:102A500006D1ACE073282CD0752874D0782853D0D8
:102A60005246179990476D1C54E1C4F30250022856
:102A700009D003280DD0D8F8001004280DD00D601F
:102A800008F1040846E1D8F80010EA17C1E900523D
:102A9000F6E7D8F800100D80F2E70D70F0E718F8AF
:102AA000041B8DF8001000208DF80100EB4601207A
:102AB00003E058F804BB4FF0FF3061074FF000010E
:102AC00002D40DE009F101018946B9420FDA8145CE
:102AD000F8DB1BF809100029F4D108E009F1010125
:102AE00089468142FADB1BF809100029F6D10398C8
:102AF0005346A0EB090721463846179A00F080FAA2
:102B0000284400EB090507E044E008E10DE01BF86C
:102B1000010B524617999047B9F10109F7D2534674
:102B200021463846179AF2E039E00A21C4F30252EE
:102B30004FF0000B0091022A06D058F8040BC11781
:102B4000032A09D00AE023E008F1070020F0070279
:102B5000F2E80201904605E000B2C117042A01D153
:102B600040B2C117002906DA0A460021404261EB53
:102B700002012D2202E0220504D52B228DF804202B
:102B8000012203E0E20701D02022F7E7914657E057
:102B90000A2100E010214FF0000B00910BE0102102
:102BA0004FF0000B44F004040827009103E00820D4
:102BB0004FF0000B0090C4F30252022A05D058F8DF
:102BC000040B0021032A08D008E008F1070020F0D8
:102BD0000702F2E80201904603E080B2042A00D125
:102BE000C0B24FF0000922072AD53278702A07D0E8
:102BF000DDF800C08CF0100C5CEA0B0C05D00EE088
:102C000040228DF80420012208E050EA010306D09A
:102C100030238DF804308DF8052002229146009B68
:102C200083F0080353EA0B030AD150EA010201D1F1
:102C3000620705D530228DF804204FF001097F1E70
:102C40003278582A04D039A20C920CAA02920BE0D6
:102C50003BA2F9E75B46009AFDF7B4FA0C9B9B5C3C
:102C6000029A521E0292137050EA0102F2D10298A7
:102C700004A9081A00F1200B600702D524F480345F
:102C800000E001275F4502DDA7EB0B0000E000201C
:102C900000EB0B01009003984944401A0390E003B5
:102CA00006D453462146179A039800F0A9F9054423
:102CB000002706E001A85246C05D179990476D1C99
:102CC0007F1C4F45F6DBE0030CD553462146179A8F
:102CD000039800F095F9054404E030205246179916
:102CE00090476D1C0099481E00900029F5DC08E013
:102CF0000298029952460078491C02911799904710
:102D00006D1CBBF10001ABF1010BF1DC5BE100F0EC
:102D100065F90544761C307800287FF40DAE19B0B3
:102D20002846BDE8F08F0000092801003031323319
:102D300034353637383961626364656600000000F7
:102D400030313233343536373839414243444546E1
:102D500000000000600700D4062708F1070020F0FB
:102D60000700F0E80223804603F0004C5FEA0C0005
:102D700001D097A009E0200501D596A005E0E00765
:102D800001D095A001E0AFF24C001390307823F011
:102D9000004365280CD006DC452809D046281DD004
:102DA00047287FD13BE0662818D067287AD136E0E3
:102DB0000021112F01DB112000E0781CCDE900017A
:102DC00004A90CA8FFF7E6FCDDE90D010C9A4FF011
:102DD000000B07F10109109200914EE04FF0004006
:102DE0000097CDE9011004A90CA8FFF7D3FCDDE999
:102DF0000D020C9B0F994FF0000B9146109300921F
:102E000011B9791C00EB0109B7EB090003D4C0F13B
:102E1000FF3B07F10109A9EB0700019042E0012FF8
:102E200000DA01270021112F01DD112000E03846D2
:102E3000CDE9000104A90CA8FFF7ACFCDDE90D0108
:102E40000C9A00914FF0000BB946109221070FD455
:102E5000009A4A4503DA914601E0A9F10109B9F166
:102E6000010F05DD109AA9F10101515C3029F4D060
:102E7000B84202DA10F1040F03DA0121CDE90110A2
:102E800010E0002803DC8344A9EB000102E0411CB0
:102E9000494500DD8946A0EB0B00401C01904FF036
:102EA00000400290200705D40198484502DB4FF00E
:102EB000FF30019000208DF84B0002980DF14B0778
:102EC000B0F1004F25D002200C902B200D900298DD
:102ED00000280CDA404202902D200D9007E00A21D4
:102EE0000298FDF7DBFD3031029007F8011D0C99C7
:102EF000481E0C900029F2DC02980028EFD1791EC0
:102F00000D980870307800F0200040F0450007F878
:102F1000020D11A8C01BC01D02901398007800B1CB
:102F2000012000EB0901019801EBE07102980144D6
:102F30000398401A401E0390E00306D453462146EE
:102F4000179A039800F05CF805441398007818B1BC
:102F50005246179990476D1CE00323D553462146EE
:102F6000179A039800F04CF805441BE0BBF1000FE2
:102F700007DB0098584504DD1098179910F80B00EE
:102F800001E0179930205246904701980BF1010B50
:102F9000401E05F10105019004D12E2052461799DB
:102FA00090476D1CB9F10001A9F10109DEDC05E0D3
:102FB00017F8010B5246179990476D1C0299481E4D
:102FC00002900029F4DC53462146179A03989EE6A6
:102FD0002D0000002B000000200000002DE9F04132
:102FE000044600251E461746880404D405E03946E9
:102FF0002020B0476D1C641EF9D52846BDE8F0813D
:103000002DE9F041044600251E469046C80301D52F
:10301000302700E02027880404D505E041463846E3
:10302000B0476D1C641EF9D52846BDE8F08100004C
:103030002DE9F04705462DED048BC2B00E4690ED0C
:10304000000A002040F2E24760EE000A05EB800132
:10305000801C91ED001AB84241EE010A31EE000ADF
:10306000F4DB9FED7F9A80EE091A80EE890A01EE6B
:10307000410A10EE100AFDF7E2FC41EC100BFFF7DD
:1030800037FB51EC100BFDF7EDFC0121002200EEA7
:10309000100A14461046DFED730AE84620EE200AB7
:1030A00005EB8003D3ED000AF4EEC00AF1EE10FA4E
:1030B00006DD31B148F8240000210122641C04E03F
:1030C00019B9521C142A00DD0121801CB842E7DB2B
:1030D000F7EE008A9FED648A032C04DAC6ED008ABD
:1030E00086ED018AB5E0641EA000054600F0D0F927
:1030F0000746002041460EE001EB800251F82030E7
:103100005268D21A00EE102A07EB8002401CB8EE7B
:10311000C00A82ED000AA042EEDB284600F0B8F9B2
:103120008246284600F0B4F981462A463946FDF722
:10313000D8F84E4B042221464846FDF784F8E007B4
:1031400004EBD4704FEA600109EB8100F6EE009ABF
:1031500090ED000A05D150ED010A30EE200A20EE74
:10316000290A00200DE000BF07EB8001D1ED000A25
:103170000AEB8001401C70EEC00AF0EEE00AC1EDDF
:10318000000AA042F0DB284600F082F980462A4679
:103190005146FDF7A6F8354B042221464046FDF77F
:1031A00052F8E00704EBD4704FEA600108EB8100AD
:1031B00002D0D0ED000A07E090ED000A50ED010AC0
:1031C00030EE200A60EE290A002108464FF08043C5
:1031D000B0EE480A17E000BFF5EEC00AF1EE10FAB3
:1031E00009D00AEB8002D2ED001A81EEA01A11EE8E
:1031F000102A9A4206DA07EB8002491C92ED001A67
:1032000031EE088A401CA042E6DB01290CD000EE1A
:10321000901A1749F8EEE00A88EE201AC9EE010A62
:1032200010EE900A884204DCC6ED008A86ED010AA1
:1032300003E086ED000AC6ED018A404600F040F842
:10324000484600F03DF8504600F03AF8384600F0A5
:1032500037F842B00020BDEC048BBDE8F0870000D9
:1032600000409C44560E05400000000075320008E6
:103270004260134190ED000AD1ED000A30EE600A81
:10328000BDEEC00A10EE100A7047000008B54FF6F8
:10329000FF73012269460348FEF760FE9DF80000B7
:1032A00008BD0000DC13002013B54FF6FF730122A8
:1032B00069460248FEF7C6FE00981CBDDC130020DC
:1032C00010B5002821D0114B0022001F196803E01F
:1032D000814203D80A4649680029F9D152B11368DE
:1032E000841A9C4204D1006818441060104602E021
:1032F000506000E0186039B102680B1A934203D1A4
:103300000B681A4402604968416010BD200000202B
:1033100038B54FF0E0242069FEF730F96569A169FE
:103320006D1C691A00912169C1F3004181B1FEF75A
:1033300025F9A169691A00914FF47A725143B1FBE2
:10334000F5F100EB4002C2EBC01001EBC00038BD4C
:103350000099F1E72DED068B82B000200090FEF77A
:103360001BF9FEF7A7FFFEF71BFFFEF701FFFEF7B5
:103370007BFFFEF72BFFDFF8E4A09FED39AB3AA00F
:10338000FFF796F9002440F2E249002640F271214D
:1033900061430AEBC108002508EB860701A934A0A8
:1033A000FCF7C4FF07EB85009DED010A6D1C2DB2F3
:1033B00080ED000A012DF1DB761C36B24E45EADBCA
:1033C000641C24B2012CE0DB0120FDF7B5FFFFF700
:1033D0009FFFFDF727FB41EC190B26491F48FFF71C
:1033E00027FEFFF795FFFDF71DFB41EC180B22A010
:1033F000FFF75EF90120FDF79FFF69461FA0FCF76C
:1034000095FF0098C828BAD11A4853EC192B90ECB4
:10341000020A51EC180BB4EEE00AF1EE10FA0BDDE3
:10342000FDF78BFA53EC1A2BFDF78DFA41EC100BDC
:1034300013A053EC102B0AE0FDF77FFA53EC1A2B84
:10344000FDF781FA41EC100B0FA053EC102BFFF7A6
:103450002FF91E20FDF770FF91E7000030000020DB
:103460000000000080842E41626567696E000000E4
:1034700025660000000000206F6B0000256400003E
:10348000302C252E36660000312C252E36660000A5
:10349000F0B50B30154D20F007010024144A0FE061
:1034A00003688B420BD38B4205D95E1A43184768D9
:1034B000C3E9006700E04368136002C004E0021D36
:1034C00010680028ECD12046002802D1286808B1F5
:1034D0000020F0BD064A07481060074A121A22F081
:1034E0000702C0E9002401202860D7E7240000205B
:1034F000200000206C140020681600200203040540
:10350000060708090A0B0C0D0E0F10100102030428
:1035100005060708090A0B0C0D0E0F10000000002D
:103520000000000001020304060708090000000073
:1035300001020304DDDDDDDDDCBBBBDDDDDDDDDD6A
:10354000DDDDDDDD988888888888888877777777DB
:1035500077888888855555566666666666666666A7
:103560006668888883333332222222222222222252
:103570002228888D943500080000002030000000CB
:103580006A270008C435000830000020381E0000FB
:103590007A27000800000000000000000100000081
:1035A000100000000000000000127A00000000007F
:1035B000000000000000000000000000000000000B
:0435C0000000000007
:040000050800018965
:00000001FF
